{
	"_format": "hh-sol-artifact-1",
	"contractName": "MoonShotFactory",
	"sourceName": "contracts/MoonShotFactory.sol",
	"abi": [
		{
			"inputs": [
				{
					"internalType": "uint256",
					"name": "_totalSupply",
					"type": "uint256"
				},
				{
					"internalType": "uint256",
					"name": "_virtualTokenReserves",
					"type": "uint256"
				},
				{
					"internalType": "uint256",
					"name": "_virtualCollateralReserves",
					"type": "uint256"
				},
				{
					"internalType": "uint256",
					"name": "_feeBasisPoints",
					"type": "uint256"
				},
				{
					"internalType": "uint256",
					"name": "_dexFeeBasisPoints",
					"type": "uint256"
				},
				{
					"internalType": "uint256",
					"name": "_migrationFeeFixed",
					"type": "uint256"
				},
				{
					"internalType": "uint256",
					"name": "_mcUpperLimit",
					"type": "uint256"
				},
				{
					"internalType": "uint256",
					"name": "_mcLowerLimit",
					"type": "uint256"
				},
				{
					"internalType": "address",
					"name": "_treasury",
					"type": "address"
				},
				{
					"internalType": "address",
					"name": "_dexTreasury",
					"type": "address"
				},
				{
					"internalType": "address",
					"name": "_uniswapV2Router",
					"type": "address"
				},
				{
					"internalType": "address",
					"name": "_signer",
					"type": "address"
				}
			],
			"stateMutability": "nonpayable",
			"type": "constructor"
		},
		{
			"inputs": [],
			"name": "FailedToSendETH",
			"type": "error"
		},
		{
			"inputs": [],
			"name": "InvalidSignature",
			"type": "error"
		},
		{
			"inputs": [],
			"name": "NotReadyForMigration",
			"type": "error"
		},
		{
			"inputs": [
				{
					"internalType": "address",
					"name": "owner",
					"type": "address"
				}
			],
			"name": "OwnableInvalidOwner",
			"type": "error"
		},
		{
			"inputs": [
				{
					"internalType": "address",
					"name": "account",
					"type": "address"
				}
			],
			"name": "OwnableUnauthorizedAccount",
			"type": "error"
		},
		{
			"inputs": [],
			"name": "ReentrancyGuardReentrantCall",
			"type": "error"
		},
		{
			"inputs": [],
			"name": "SignatureIsUsed",
			"type": "error"
		},
		{
			"anonymous": false,
			"inputs": [
				{
					"indexed": true,
					"internalType": "address",
					"name": "buyer",
					"type": "address"
				},
				{
					"indexed": true,
					"internalType": "address",
					"name": "token",
					"type": "address"
				},
				{
					"indexed": false,
					"internalType": "uint256",
					"name": "tokenAmount",
					"type": "uint256"
				},
				{
					"indexed": false,
					"internalType": "uint256",
					"name": "contractTokenBalance",
					"type": "uint256"
				},
				{
					"indexed": false,
					"internalType": "uint256",
					"name": "ethAmount",
					"type": "uint256"
				},
				{
					"indexed": false,
					"internalType": "uint256",
					"name": "fee",
					"type": "uint256"
				},
				{
					"indexed": false,
					"internalType": "uint256",
					"name": "dexFee",
					"type": "uint256"
				}
			],
			"name": "BuyExactIn",
			"type": "event"
		},
		{
			"anonymous": false,
			"inputs": [
				{
					"indexed": true,
					"internalType": "address",
					"name": "buyer",
					"type": "address"
				},
				{
					"indexed": true,
					"internalType": "address",
					"name": "token",
					"type": "address"
				},
				{
					"indexed": false,
					"internalType": "uint256",
					"name": "tokenAmount",
					"type": "uint256"
				},
				{
					"indexed": false,
					"internalType": "uint256",
					"name": "contractTokenBalance",
					"type": "uint256"
				},
				{
					"indexed": false,
					"internalType": "uint256",
					"name": "ethAmount",
					"type": "uint256"
				},
				{
					"indexed": false,
					"internalType": "uint256",
					"name": "refund",
					"type": "uint256"
				},
				{
					"indexed": false,
					"internalType": "uint256",
					"name": "fee",
					"type": "uint256"
				},
				{
					"indexed": false,
					"internalType": "uint256",
					"name": "dexFee",
					"type": "uint256"
				}
			],
			"name": "BuyExactOut",
			"type": "event"
		},
		{
			"anonymous": false,
			"inputs": [
				{
					"indexed": false,
					"internalType": "address",
					"name": "token",
					"type": "address"
				}
			],
			"name": "MarketcapReached",
			"type": "event"
		},
		{
			"anonymous": false,
			"inputs": [
				{
					"indexed": false,
					"internalType": "address",
					"name": "token",
					"type": "address"
				},
				{
					"indexed": false,
					"internalType": "uint256",
					"name": "tokensToMigrate",
					"type": "uint256"
				},
				{
					"indexed": false,
					"internalType": "uint256",
					"name": "tokensToBurn",
					"type": "uint256"
				},
				{
					"indexed": false,
					"internalType": "uint256",
					"name": "ethToMigrate",
					"type": "uint256"
				},
				{
					"indexed": false,
					"internalType": "uint256",
					"name": "migrationFee",
					"type": "uint256"
				},
				{
					"indexed": false,
					"internalType": "address",
					"name": "pair",
					"type": "address"
				}
			],
			"name": "Migrated",
			"type": "event"
		},
		{
			"anonymous": false,
			"inputs": [
				{
					"indexed": false,
					"internalType": "address",
					"name": "addr",
					"type": "address"
				},
				{
					"indexed": false,
					"internalType": "bytes",
					"name": "signature",
					"type": "bytes"
				}
			],
			"name": "NewMoonShotToken",
			"type": "event"
		},
		{
			"anonymous": false,
			"inputs": [
				{
					"indexed": false,
					"internalType": "address",
					"name": "addr",
					"type": "address"
				},
				{
					"indexed": false,
					"internalType": "bytes",
					"name": "signature",
					"type": "bytes"
				},
				{
					"indexed": false,
					"internalType": "uint256",
					"name": "tokenAmount",
					"type": "uint256"
				},
				{
					"indexed": false,
					"internalType": "uint256",
					"name": "ethAmount",
					"type": "uint256"
				},
				{
					"indexed": false,
					"internalType": "uint256",
					"name": "fee",
					"type": "uint256"
				},
				{
					"indexed": false,
					"internalType": "uint256",
					"name": "dexFee",
					"type": "uint256"
				}
			],
			"name": "NewMoonShotTokenAndBuy",
			"type": "event"
		},
		{
			"anonymous": false,
			"inputs": [
				{
					"indexed": true,
					"internalType": "address",
					"name": "previousOwner",
					"type": "address"
				},
				{
					"indexed": true,
					"internalType": "address",
					"name": "newOwner",
					"type": "address"
				}
			],
			"name": "OwnershipTransferred",
			"type": "event"
		},
		{
			"anonymous": false,
			"inputs": [
				{
					"indexed": true,
					"internalType": "address",
					"name": "seller",
					"type": "address"
				},
				{
					"indexed": true,
					"internalType": "address",
					"name": "token",
					"type": "address"
				},
				{
					"indexed": false,
					"internalType": "uint256",
					"name": "tokenAmount",
					"type": "uint256"
				},
				{
					"indexed": false,
					"internalType": "uint256",
					"name": "contractTokenBalance",
					"type": "uint256"
				},
				{
					"indexed": false,
					"internalType": "uint256",
					"name": "ethAmount",
					"type": "uint256"
				},
				{
					"indexed": false,
					"internalType": "uint256",
					"name": "fee",
					"type": "uint256"
				},
				{
					"indexed": false,
					"internalType": "uint256",
					"name": "dexFee",
					"type": "uint256"
				}
			],
			"name": "SellExactIn",
			"type": "event"
		},
		{
			"anonymous": false,
			"inputs": [
				{
					"indexed": true,
					"internalType": "address",
					"name": "seller",
					"type": "address"
				},
				{
					"indexed": true,
					"internalType": "address",
					"name": "token",
					"type": "address"
				},
				{
					"indexed": false,
					"internalType": "uint256",
					"name": "tokenAmount",
					"type": "uint256"
				},
				{
					"indexed": false,
					"internalType": "uint256",
					"name": "contractTokenBalance",
					"type": "uint256"
				},
				{
					"indexed": false,
					"internalType": "uint256",
					"name": "ethAmount",
					"type": "uint256"
				},
				{
					"indexed": false,
					"internalType": "uint256",
					"name": "fee",
					"type": "uint256"
				},
				{
					"indexed": false,
					"internalType": "uint256",
					"name": "dexFee",
					"type": "uint256"
				}
			],
			"name": "SellExactOut",
			"type": "event"
		},
		{
			"anonymous": false,
			"inputs": [
				{
					"indexed": false,
					"internalType": "uint256",
					"name": "totalSupply",
					"type": "uint256"
				},
				{
					"indexed": false,
					"internalType": "uint256",
					"name": "virtualTokenReserves",
					"type": "uint256"
				},
				{
					"indexed": false,
					"internalType": "uint256",
					"name": "virtualCollateralReserves",
					"type": "uint256"
				},
				{
					"indexed": false,
					"internalType": "uint256",
					"name": "feeBasisPoints",
					"type": "uint256"
				},
				{
					"indexed": false,
					"internalType": "uint256",
					"name": "dexFeeBasisPoints",
					"type": "uint256"
				},
				{
					"indexed": false,
					"internalType": "uint256",
					"name": "migrationFeeFixed",
					"type": "uint256"
				},
				{
					"indexed": false,
					"internalType": "uint256",
					"name": "mcUpperLimit",
					"type": "uint256"
				},
				{
					"indexed": false,
					"internalType": "uint256",
					"name": "mcLowerLimit",
					"type": "uint256"
				},
				{
					"indexed": false,
					"internalType": "address",
					"name": "treasury",
					"type": "address"
				},
				{
					"indexed": false,
					"internalType": "address",
					"name": "dexTreasury",
					"type": "address"
				},
				{
					"indexed": false,
					"internalType": "address",
					"name": "uniswapV2Router",
					"type": "address"
				},
				{
					"indexed": false,
					"internalType": "address",
					"name": "signer",
					"type": "address"
				}
			],
			"name": "SetConfig",
			"type": "event"
		},
		{
			"inputs": [
				{
					"internalType": "address",
					"name": "_token",
					"type": "address"
				},
				{
					"internalType": "uint256",
					"name": "_amountOutMin",
					"type": "uint256"
				}
			],
			"name": "buyExactIn",
			"outputs": [],
			"stateMutability": "payable",
			"type": "function"
		},
		{
			"inputs": [
				{
					"internalType": "address",
					"name": "_token",
					"type": "address"
				},
				{
					"internalType": "uint256",
					"name": "_tokenAmount",
					"type": "uint256"
				},
				{
					"internalType": "uint256",
					"name": "_maxCollateralAmount",
					"type": "uint256"
				}
			],
			"name": "buyExactOut",
			"outputs": [],
			"stateMutability": "payable",
			"type": "function"
		},
		{
			"inputs": [
				{
					"internalType": "string",
					"name": "_name",
					"type": "string"
				},
				{
					"internalType": "string",
					"name": "_symbol",
					"type": "string"
				},
				{
					"internalType": "uint256",
					"name": "_nonce",
					"type": "uint256"
				},
				{
					"internalType": "bytes",
					"name": "_signature",
					"type": "bytes"
				}
			],
			"name": "createMoonShotToken",
			"outputs": [
				{
					"internalType": "address",
					"name": "",
					"type": "address"
				}
			],
			"stateMutability": "nonpayable",
			"type": "function"
		},
		{
			"inputs": [
				{
					"internalType": "string",
					"name": "_name",
					"type": "string"
				},
				{
					"internalType": "string",
					"name": "_symbol",
					"type": "string"
				},
				{
					"internalType": "uint256",
					"name": "_nonce",
					"type": "uint256"
				},
				{
					"internalType": "uint256",
					"name": "_tokenAmountMin",
					"type": "uint256"
				},
				{
					"internalType": "bytes",
					"name": "_signature",
					"type": "bytes"
				}
			],
			"name": "createMoonShotTokenAndBuy",
			"outputs": [
				{
					"internalType": "address",
					"name": "",
					"type": "address"
				}
			],
			"stateMutability": "payable",
			"type": "function"
		},
		{
			"inputs": [],
			"name": "dexFeeBasisPoints",
			"outputs": [
				{
					"internalType": "uint256",
					"name": "",
					"type": "uint256"
				}
			],
			"stateMutability": "view",
			"type": "function"
		},
		{
			"inputs": [],
			"name": "dexTreasury",
			"outputs": [
				{
					"internalType": "address",
					"name": "",
					"type": "address"
				}
			],
			"stateMutability": "view",
			"type": "function"
		},
		{
			"inputs": [],
			"name": "feeBasisPoints",
			"outputs": [
				{
					"internalType": "uint256",
					"name": "",
					"type": "uint256"
				}
			],
			"stateMutability": "view",
			"type": "function"
		},
		{
			"inputs": [],
			"name": "mcLowerLimit",
			"outputs": [
				{
					"internalType": "uint256",
					"name": "",
					"type": "uint256"
				}
			],
			"stateMutability": "view",
			"type": "function"
		},
		{
			"inputs": [],
			"name": "mcUpperLimit",
			"outputs": [
				{
					"internalType": "uint256",
					"name": "",
					"type": "uint256"
				}
			],
			"stateMutability": "view",
			"type": "function"
		},
		{
			"inputs": [
				{
					"internalType": "address",
					"name": "_token",
					"type": "address"
				}
			],
			"name": "migrate",
			"outputs": [],
			"stateMutability": "nonpayable",
			"type": "function"
		},
		{
			"inputs": [],
			"name": "migrationFeeFixed",
			"outputs": [
				{
					"internalType": "uint256",
					"name": "",
					"type": "uint256"
				}
			],
			"stateMutability": "view",
			"type": "function"
		},
		{
			"inputs": [
				{
					"internalType": "uint256",
					"name": "",
					"type": "uint256"
				}
			],
			"name": "moonShotTokens",
			"outputs": [
				{
					"internalType": "address",
					"name": "",
					"type": "address"
				}
			],
			"stateMutability": "view",
			"type": "function"
		},
		{
			"inputs": [],
			"name": "owner",
			"outputs": [
				{
					"internalType": "address",
					"name": "",
					"type": "address"
				}
			],
			"stateMutability": "view",
			"type": "function"
		},
		{
			"inputs": [
				{
					"internalType": "address",
					"name": "",
					"type": "address"
				}
			],
			"name": "readyForMigration",
			"outputs": [
				{
					"internalType": "bool",
					"name": "",
					"type": "bool"
				}
			],
			"stateMutability": "view",
			"type": "function"
		},
		{
			"inputs": [],
			"name": "renounceOwnership",
			"outputs": [],
			"stateMutability": "nonpayable",
			"type": "function"
		},
		{
			"inputs": [
				{
					"internalType": "address",
					"name": "_token",
					"type": "address"
				},
				{
					"internalType": "uint256",
					"name": "_tokenAmount",
					"type": "uint256"
				},
				{
					"internalType": "uint256",
					"name": "_amountCollateralMin",
					"type": "uint256"
				}
			],
			"name": "sellExactIn",
			"outputs": [],
			"stateMutability": "nonpayable",
			"type": "function"
		},
		{
			"inputs": [
				{
					"internalType": "address",
					"name": "_token",
					"type": "address"
				},
				{
					"internalType": "uint256",
					"name": "_tokenAmountMax",
					"type": "uint256"
				},
				{
					"internalType": "uint256",
					"name": "_amountCollateral",
					"type": "uint256"
				}
			],
			"name": "sellExactOut",
			"outputs": [],
			"stateMutability": "nonpayable",
			"type": "function"
		},
		{
			"inputs": [
				{
					"internalType": "uint256",
					"name": "_totalSupply",
					"type": "uint256"
				},
				{
					"internalType": "uint256",
					"name": "_virtualTokenReserves",
					"type": "uint256"
				},
				{
					"internalType": "uint256",
					"name": "_virtualCollateralReserves",
					"type": "uint256"
				},
				{
					"internalType": "uint256",
					"name": "_feeBasisPoints",
					"type": "uint256"
				},
				{
					"internalType": "uint256",
					"name": "_dexFeeBasisPoints",
					"type": "uint256"
				},
				{
					"internalType": "uint256",
					"name": "_migrationFeeFixed",
					"type": "uint256"
				},
				{
					"internalType": "uint256",
					"name": "_mcUpperLimit",
					"type": "uint256"
				},
				{
					"internalType": "uint256",
					"name": "_mcLowerLimit",
					"type": "uint256"
				},
				{
					"internalType": "address",
					"name": "_treasury",
					"type": "address"
				},
				{
					"internalType": "address",
					"name": "_dexTreasury",
					"type": "address"
				},
				{
					"internalType": "address",
					"name": "_uniswapV2Router",
					"type": "address"
				},
				{
					"internalType": "address",
					"name": "_signer",
					"type": "address"
				}
			],
			"name": "setConfig",
			"outputs": [],
			"stateMutability": "nonpayable",
			"type": "function"
		},
		{
			"inputs": [],
			"name": "signer",
			"outputs": [
				{
					"internalType": "address",
					"name": "",
					"type": "address"
				}
			],
			"stateMutability": "view",
			"type": "function"
		},
		{
			"inputs": [],
			"name": "totalSupply",
			"outputs": [
				{
					"internalType": "uint256",
					"name": "",
					"type": "uint256"
				}
			],
			"stateMutability": "view",
			"type": "function"
		},
		{
			"inputs": [
				{
					"internalType": "address",
					"name": "newOwner",
					"type": "address"
				}
			],
			"name": "transferOwnership",
			"outputs": [],
			"stateMutability": "nonpayable",
			"type": "function"
		},
		{
			"inputs": [],
			"name": "treasury",
			"outputs": [
				{
					"internalType": "address",
					"name": "",
					"type": "address"
				}
			],
			"stateMutability": "view",
			"type": "function"
		},
		{
			"inputs": [],
			"name": "uniswapV2Router",
			"outputs": [
				{
					"internalType": "address",
					"name": "",
					"type": "address"
				}
			],
			"stateMutability": "view",
			"type": "function"
		},
		{
			"inputs": [
				{
					"internalType": "bytes32",
					"name": "",
					"type": "bytes32"
				}
			],
			"name": "usedSignatures",
			"outputs": [
				{
					"internalType": "bool",
					"name": "",
					"type": "bool"
				}
			],
			"stateMutability": "view",
			"type": "function"
		},
		{
			"inputs": [],
			"name": "virtualCollateralReserves",
			"outputs": [
				{
					"internalType": "uint256",
					"name": "",
					"type": "uint256"
				}
			],
			"stateMutability": "view",
			"type": "function"
		},
		{
			"inputs": [],
			"name": "virtualTokenReserves",
			"outputs": [
				{
					"internalType": "uint256",
					"name": "",
					"type": "uint256"
				}
			],
			"stateMutability": "view",
			"type": "function"
		},
		{
			"stateMutability": "payable",
			"type": "receive"
		}
	],
	"bytecode": "0x60806040523480156200001157600080fd5b5060405162004b4738038062004b478339810160408190526200003491620002f5565b33806200005b57604051631e4fbdf760e01b81526000600482015260240160405180910390fd5b620000668162000093565b5060018055620000818c8c8c8c8c8c8c8c8c8c8c8c620000e3565b505050505050505050505050620003a2565b600080546001600160a01b038381166001600160a01b0319831681178455604051919092169283917f8be0079c531659141344cd1fd0a4f28419497f9722a3daafe3b4186f6b6457e09190a35050565b8b6002819055508a6003819055508960048190555088600581905550856006819055508460078190555083600b60006101000a8154816001600160a01b0302191690836001600160a01b0316021790555081600c60006101000a8154816001600160a01b0302191690836001600160a01b0316021790555082600a60006101000a8154816001600160a01b0302191690836001600160a01b03160217905550866008819055508760098190555080600d60006101000a8154816001600160a01b0302191690836001600160a01b031602179055507f973791787358da83804a9c9e6637aa2bea94cdc547aec7eecf021b0a521c8b56600254600354600454600554600954600854600654600754600b60009054906101000a90046001600160a01b0316600a60009054906101000a90046001600160a01b0316600c60009054906101000a90046001600160a01b0316600d60009054906101000a90046001600160a01b0316604051620002c29c9b9a999897969594939291909b8c5260208c019a909a5260408b019890985260608a0196909652608089019490945260a088019290925260c087015260e08601526001600160a01b03908116610100860152908116610120850152908116610140840152166101608201526101800190565b60405180910390a1505050505050505050505050565b80516001600160a01b0381168114620002f057600080fd5b919050565b6000806000806000806000806000806000806101808d8f0312156200031957600080fd5b8c519b5060208d01519a5060408d0151995060608d0151985060808d0151975060a08d0151965060c08d0151955060e08d015194506200035d6101008e01620002d8565b93506200036e6101208e01620002d8565b92506200037f6101408e01620002d8565b9150620003906101608e01620002d8565b90509295989b509295989b509295989b565b61479580620003b26000396000f3fe608060405260043610620001a55760003560e01c8063715018a611620000e2578063ace1bfab1162000095578063ce5494bb116200006c578063ce5494bb146200048b578063e8e70c4c14620004b0578063f2fde38b14620004c8578063f978fd6114620004ed57600080fd5b8063ace1bfab1462000417578063b8606eef146200045c578063c68255a5146200047457600080fd5b8063715018a6146200036a578063758b647a146200038257806385f377ca14620003995780638da5cb5b14620003bb57806394b6c16014620003db578063a747f506146200040057600080fd5b806330a2aa2011620001585780635f76cb32116200012f5780635f76cb3214620002f357806361d027b314620003185780636bb922dd146200033a5780636d04eb9f146200035257600080fd5b806330a2aa201462000291578063431a0cdb14620002b65780634c7766b514620002db57600080fd5b8063095b710d14620001b257806309d8dbd814620001dd5780631655bc6214620002045780631694505e146200021c57806318160ddd1462000257578063238ac933146200026f57600080fd5b36620001ad57005b600080fd5b348015620001bf57600080fd5b50620001ca60095481565b6040519081526020015b60405180910390f35b348015620001ea57600080fd5b5062000202620001fc36600462001d7a565b62000521565b005b3480156200021157600080fd5b50620001ca60035481565b3480156200022957600080fd5b50600c546200023e906001600160a01b031681565b6040516001600160a01b039091168152602001620001d4565b3480156200026457600080fd5b50620001ca60025481565b3480156200027c57600080fd5b50600d546200023e906001600160a01b031681565b3480156200029e57600080fd5b5062000202620002b036600462001e31565b6200054f565b348015620002c357600080fd5b506200023e620002d536600462001f14565b620007a1565b348015620002e857600080fd5b50620001ca60065481565b3480156200030057600080fd5b506200023e6200031236600462001fb0565b620008fe565b3480156200032557600080fd5b50600b546200023e906001600160a01b031681565b3480156200034757600080fd5b50620001ca60085481565b3480156200035f57600080fd5b50620001ca60075481565b3480156200037757600080fd5b506200020262000929565b620002026200039336600462001fca565b62000941565b348015620003a657600080fd5b50600a546200023e906001600160a01b031681565b348015620003c857600080fd5b506000546001600160a01b03166200023e565b348015620003e857600080fd5b5062000202620003fa36600462001e31565b62000cc1565b6200023e6200041136600462001ff9565b62000f13565b3480156200042457600080fd5b506200044b620004363660046200209f565b600f6020526000908152604090205460ff1681565b6040519015158152602001620001d4565b3480156200046957600080fd5b50620001ca60055481565b620002026200048536600462001e31565b620011fb565b3480156200049857600080fd5b5062000202620004aa3660046200209f565b6200150f565b348015620004bd57600080fd5b50620001ca60045481565b348015620004d557600080fd5b5062000202620004e73660046200209f565b620016ef565b348015620004fa57600080fd5b506200044b6200050c36600462001fb0565b600e6020526000908152604090205460ff1681565b6200052b62001737565b620005418c8c8c8c8c8c8c8c8c8c8c8c62001766565b505050505050505050505050565b620005596200195b565b6040516323b872dd60e01b8152336004820152306024820152604481018390526001600160a01b038416906323b872dd906064016020604051808303816000875af1158015620005ad573d6000803e3d6000fd5b505050506040513d601f19601f82011682018060405250810190620005d39190620020c6565b5060405163e98d5cd560e01b81526004810183905260248101829052600090819081906001600160a01b0387169063e98d5cd5906044016060604051808303816000875af11580156200062a573d6000803e3d6000fd5b505050506040513d601f19601f82011682018060405250810190620006509190620020ea565b9250925092506000336001600160a01b03164760405160006040518083038185875af1925050503d8060008114620006a5576040519150601f19603f3d011682016040523d82523d6000602084013e620006aa565b606091505b5050905080620006cd576040516338822c1360e11b815260040160405180910390fd5b6040516370a0823160e01b81526001600160a01b038816600482018190529033907f94574a93d21b07ca695c309d107361e81a33b4c8163c002008e1cd818dcf173190899084906370a0823190602401602060405180830381865afa1580156200073b573d6000803e3d6000fd5b505050506040513d601f19601f8201168201806040525081019062000761919062002119565b6040805192835260208301919091528101889052606081018790526080810186905260a00160405180910390a3505050506200079c60018055565b505050565b6000620007b18585858562001986565b604080516101a08101825286815260208101869052600254818301526003546060820152600454608082015260055460a082015260095460c082015260085460e0820152600754610100820152600654610120820152600b546001600160a01b03908116610140830152600c548116610160830152600a5416610180820152905160009190620008419062001d56565b6200084d919062002187565b604051809103906000f0801580156200086a573d6000803e3d6000fd5b50601080546001810182556000919091527f1b6847dc741a1b0cd08d278845f9d819d87b734759afb55fe2de5cb82a9ae6720180546001600160a01b0319166001600160a01b0383161790556040519091507f801673800b38690a3f6b5a13123a788965fb3bc9f3c717c435c09d24e47dbcd690620008ed90839086906200227c565b60405180910390a195945050505050565b601081815481106200090f57600080fd5b6000918252602090912001546001600160a01b0316905081565b6200093362001737565b6200093f600062001a91565b565b6200094b6200195b565b6000806000846001600160a01b0316634fb3fbe734866040518363ffffffff1660e01b81526004016200098091815260200190565b60606040518083038185885af11580156200099f573d6000803e3d6000fd5b50505050506040513d601f19601f82011682018060405250810190620009c69190620020ea565b6040516370a0823160e01b815230600482015292955090935091506000906001600160a01b038716906370a0823190602401602060405180830381865afa15801562000a16573d6000803e3d6000fd5b505050506040513d601f19601f8201168201806040525081019062000a3c919062002119565b60405163a9059cbb60e01b8152336004820152602481018290529091506001600160a01b0387169063a9059cbb906044016020604051808303816000875af115801562000a8d573d6000803e3d6000fd5b505050506040513d601f19601f8201168201806040525081019062000ab39190620020c6565b5047801562000b2a57604051600090339083908381818185875af1925050503d806000811462000b00576040519150601f19603f3d011682016040523d82523d6000602084013e62000b05565b606091505b505090508062000b28576040516338822c1360e11b815260040160405180910390fd5b505b6040516370a0823160e01b81526001600160a01b038816600482018190529033907f2bef89d83a0dbed5e214f6f76e010f3904412414c6d6342c070114e580f248b090859084906370a0823190602401602060405180830381865afa15801562000b98573d6000803e3d6000fd5b505050506040513d601f19601f8201168201806040525081019062000bbe919062002119565b6040805192835260208301919091528101899052606081018890526080810187905260a00160405180910390a3866001600160a01b031663fd62bcd76040518163ffffffff1660e01b8152600401602060405180830381865afa15801562000c2a573d6000803e3d6000fd5b505050506040513d601f19601f8201168201806040525081019062000c509190620020c6565b1562000cae576001600160a01b0387166000818152600f6020908152604091829020805460ff1916600117905590519182527f5a559a9a4be3dacfba7a0da0a570245e186e11f99ddfc652c6d2c971d9efbb49910160405180910390a15b505050505062000cbd60018055565b5050565b62000ccb6200195b565b6040516323b872dd60e01b8152336004820152306024820152604481018390526001600160a01b038416906323b872dd906064016020604051808303816000875af115801562000d1f573d6000803e3d6000fd5b505050506040513d601f19601f8201168201806040525081019062000d459190620020c6565b50604051630e30ec6360e31b815260048101839052602481018290526000908190819081906001600160a01b038816906371876318906044016080604051808303816000875af115801562000d9e573d6000803e3d6000fd5b505050506040513d601f19601f8201168201806040525081019062000dc49190620022aa565b93509350935093506000336001600160a01b03164760405160006040518083038185875af1925050503d806000811462000e1b576040519150601f19603f3d011682016040523d82523d6000602084013e62000e20565b606091505b505090508062000e43576040516338822c1360e11b815260040160405180910390fd5b6040516370a0823160e01b81526001600160a01b038916600482018190529033907f30c7794506ee082e7f61c989b619a6fa7f73c2783d8fb0e986ce7abdf5399db690879084906370a0823190602401602060405180830381865afa15801562000eb1573d6000803e3d6000fd5b505050506040513d601f19601f8201168201806040525081019062000ed7919062002119565b6040805192835260208301919091528101899052606081018790526080810186905260a00160405180910390a350505050506200079c60018055565b600062000f1f6200195b565b62000f2d8686868562001986565b604080516101a08101825287815260208101879052600254818301526003546060820152600454608082015260055460a082015260095460c082015260085460e0820152600754610100820152600654610120820152600b546001600160a01b03908116610140830152600c548116610160830152600a541661018082015290516000919062000fbd9062001d56565b62000fc9919062002187565b604051809103906000f08015801562000fe6573d6000803e3d6000fd5b5090506000806000836001600160a01b0316634fb3fbe734896040518363ffffffff1660e01b81526004016200101e91815260200190565b60606040518083038185885af11580156200103d573d6000803e3d6000fd5b50505050506040513d601f19601f82011682018060405250810190620010649190620020ea565b6040516370a0823160e01b815230600482015292955090935091506000906001600160a01b038616906370a0823190602401602060405180830381865afa158015620010b4573d6000803e3d6000fd5b505050506040513d601f19601f82011682018060405250810190620010da919062002119565b60405163a9059cbb60e01b8152336004820152602481018290529091506001600160a01b0386169063a9059cbb906044016020604051808303816000875af11580156200112b573d6000803e3d6000fd5b505050506040513d601f19601f82011682018060405250810190620011519190620020c6565b50601080546001810182556000919091527f1b6847dc741a1b0cd08d278845f9d819d87b734759afb55fe2de5cb82a9ae6720180546001600160a01b0319166001600160a01b0387161790556040517f20ca5a6228bf761bd0b30341235dacfa6244b2a7d4eed06249f3907080f0615c90620011d99087908a908590899089908990620022e1565b60405180910390a150929350505050620011f260018055565b95945050505050565b620012056200195b565b6040516325e17b5760e01b81526004810183905260248101829052600090819081906001600160a01b038716906325e17b5790349060440160606040518083038185885af11580156200125c573d6000803e3d6000fd5b50505050506040513d601f19601f82011682018060405250810190620012839190620020ea565b60405163a9059cbb60e01b81523360048201526024810189905292955090935091506001600160a01b0387169063a9059cbb906044016020604051808303816000875af1158015620012d9573d6000803e3d6000fd5b505050506040513d601f19601f82011682018060405250810190620012ff9190620020c6565b504780156200137657604051600090339083908381818185875af1925050503d80600081146200134c576040519150601f19603f3d011682016040523d82523d6000602084013e62001351565b606091505b505090508062001374576040516338822c1360e11b815260040160405180910390fd5b505b6040516370a0823160e01b81526001600160a01b038816600482018190529033907fdb8084c6e28ed0211ad4b04e2bcbef0946d4581449f8869bd152f35a95c59fe790899084906370a0823190602401602060405180830381865afa158015620013e4573d6000803e3d6000fd5b505050506040513d601f19601f820116820180604052508101906200140a919062002119565b6040805192835260208301919091528101889052606081018590526080810187905260a0810186905260c00160405180910390a3866001600160a01b031663fd62bcd76040518163ffffffff1660e01b8152600401602060405180830381865afa1580156200147d573d6000803e3d6000fd5b505050506040513d601f19601f82011682018060405250810190620014a39190620020c6565b1562001501576001600160a01b0387166000818152600f6020908152604091829020805460ff1916600117905590519182527f5a559a9a4be3dacfba7a0da0a570245e186e11f99ddfc652c6d2c971d9efbb49910160405180910390a15b505050506200079c60018055565b6001600160a01b0381166000908152600f602052604090205460ff166200154957604051633f7a101960e01b815260040160405180910390fd5b6000806000836001600160a01b0316638fd3ab806040518163ffffffff1660e01b81526004016060604051808303816000875af11580156200158f573d6000803e3d6000fd5b505050506040513d601f19601f82011682018060405250810190620015b59190620020ea565b9250925092507fa11672d49fffe086a179ad90e93d275d6298008a4b74d8a6cb2eff5bf5a9fe9984848484886001600160a01b031663c48afe166040518163ffffffff1660e01b8152600401602060405180830381865afa1580156200161f573d6000803e3d6000fd5b505050506040513d601f19601f8201168201806040525081019062001645919062002119565b896001600160a01b031663a8aa1b316040518163ffffffff1660e01b8152600401602060405180830381865afa15801562001684573d6000803e3d6000fd5b505050506040513d601f19601f82011682018060405250810190620016aa91906200232c565b604080516001600160a01b03978816815260208101969096528501939093526060840191909152608083015290911660a082015260c00160405180910390a150505050565b620016f962001737565b6001600160a01b0381166200172957604051631e4fbdf760e01b8152600060048201526024015b60405180910390fd5b620017348162001a91565b50565b6000546001600160a01b031633146200093f5760405163118cdaa760e01b815233600482015260240162001720565b8b6002819055508a6003819055508960048190555088600581905550856006819055508460078190555083600b60006101000a8154816001600160a01b0302191690836001600160a01b0316021790555081600c60006101000a8154816001600160a01b0302191690836001600160a01b0316021790555082600a60006101000a8154816001600160a01b0302191690836001600160a01b03160217905550866008819055508760098190555080600d60006101000a8154816001600160a01b0302191690836001600160a01b031602179055507f973791787358da83804a9c9e6637aa2bea94cdc547aec7eecf021b0a521c8b56600254600354600454600554600954600854600654600754600b60009054906101000a90046001600160a01b0316600a60009054906101000a90046001600160a01b0316600c60009054906101000a90046001600160a01b0316600d60009054906101000a90046001600160a01b0316604051620019459c9b9a999897969594939291909b8c5260208c019a909a5260408b019890985260608a0196909652608089019490945260a088019290925260c087015260e08601526001600160a01b03908116610100860152908116610120850152908116610140840152166101608201526101800190565b60405180910390a1505050505050505050505050565b6002600154036200197f57604051633ee5aeb560e01b815260040160405180910390fd5b6002600155565b80516020808301919091206000908152600e909152604090205460ff1615620019c25760405163196291ad60e11b815260040160405180910390fd5b6000848484304633604051602001620019e1969594939291906200234c565b60408051601f198184030181529190528051602090910120600d5490915062001a4c906001600160a01b031662001a45837f19457468657265756d205369676e6564204d6573736167653a0a3332000000006000908152601c91909152603c902090565b8462001ae1565b62001a6a57604051638baa579f60e01b815260040160405180910390fd5b5080516020918201206000908152600e90915260409020805460ff19166001179055505050565b600080546001600160a01b038381166001600160a01b0319831681178455604051919092169283917f8be0079c531659141344cd1fd0a4f28419497f9722a3daafe3b4186f6b6457e09190a35050565b600080600062001af2858562001b4c565b509092509050600081600381111562001b0f5762001b0f620023b0565b14801562001b2e5750856001600160a01b0316826001600160a01b0316145b8062001b42575062001b4286868662001b9d565b9695505050505050565b6000806000835160410362001b8a5760208401516040850151606086015160001a62001b7b8882858562001c82565b95509550955050505062001b96565b50508151600091506002905b9250925092565b6000806000856001600160a01b0316858560405160240162001bc1929190620023c6565b60408051601f198184030181529181526020820180516001600160e01b0316630b135d3f60e11b1790525162001bf89190620023e1565b600060405180830381855afa9150503d806000811462001c35576040519150601f19603f3d011682016040523d82523d6000602084013e62001c3a565b606091505b509150915081801562001c4f57506020815110155b801562001b4257508051630b135d3f60e11b9062001c77908301602090810190840162002119565b149695505050505050565b600080807f7fffffffffffffffffffffffffffffff5d576e7357a4501ddfe92f46681b20a084111562001cbf575060009150600390508262001d4c565b604080516000808252602082018084528a905260ff891692820192909252606081018790526080810186905260019060a0016020604051602081039080840390855afa15801562001d14573d6000803e3d6000fd5b5050604051601f1901519150506001600160a01b03811662001d425750600092506001915082905062001d4c565b9250600091508190505b9450945094915050565b612360806200240083390190565b6001600160a01b03811681146200173457600080fd5b6000806000806000806000806000806000806101808d8f03121562001d9e57600080fd5b8c359b5060208d01359a5060408d0135995060608d0135985060808d0135975060a08d0135965060c08d0135955060e08d013594506101008d013562001de48162001d64565b93506101208d013562001df78162001d64565b92506101408d013562001e0a8162001d64565b91506101608d013562001e1d8162001d64565b809150509295989b509295989b509295989b565b60008060006060848603121562001e4757600080fd5b833562001e548162001d64565b95602085013595506040909401359392505050565b634e487b7160e01b600052604160045260246000fd5b600082601f83011262001e9157600080fd5b813567ffffffffffffffff8082111562001eaf5762001eaf62001e69565b604051601f8301601f19908116603f0116810190828211818310171562001eda5762001eda62001e69565b8160405283815286602085880101111562001ef457600080fd5b836020870160208301376000602085830101528094505050505092915050565b6000806000806080858703121562001f2b57600080fd5b843567ffffffffffffffff8082111562001f4457600080fd5b62001f528883890162001e7f565b9550602087013591508082111562001f6957600080fd5b62001f778883890162001e7f565b945060408701359350606087013591508082111562001f9557600080fd5b5062001fa48782880162001e7f565b91505092959194509250565b60006020828403121562001fc357600080fd5b5035919050565b6000806040838503121562001fde57600080fd5b823562001feb8162001d64565b946020939093013593505050565b600080600080600060a086880312156200201257600080fd5b853567ffffffffffffffff808211156200202b57600080fd5b6200203989838a0162001e7f565b965060208801359150808211156200205057600080fd5b6200205e89838a0162001e7f565b9550604088013594506060880135935060808801359150808211156200208357600080fd5b50620020928882890162001e7f565b9150509295509295909350565b600060208284031215620020b257600080fd5b8135620020bf8162001d64565b9392505050565b600060208284031215620020d957600080fd5b81518015158114620020bf57600080fd5b6000806000606084860312156200210057600080fd5b8351925060208401519150604084015190509250925092565b6000602082840312156200212c57600080fd5b5051919050565b60005b838110156200215057818101518382015260200162002136565b50506000910152565b600081518084526200217381602086016020860162002133565b601f01601f19169290920160200192915050565b60208152600082516101a0806020850152620021a86101c085018362002159565b91506020850151601f19858403016040860152620021c7838262002159565b9250506040850151606085015260608501516080850152608085015160a085015260a085015160c085015260c085015160e085015260e085015161010081818701528087015191505061012081818701528087015191505061014081818701528087015191505061016062002246818701836001600160a01b03169052565b860151905061018062002263868201836001600160a01b03169052565b909501516001600160a01b031693019290925250919050565b6001600160a01b0383168152604060208201819052600090620022a29083018462002159565b949350505050565b60008060008060808587031215620022c157600080fd5b505082516020840151604085015160609095015191969095509092509050565b6001600160a01b038716815260c060208201819052600090620023079083018862002159565b90508560408301528460608301528360808301528260a0830152979650505050505050565b6000602082840312156200233f57600080fd5b8151620020bf8162001d64565b6000875162002360818460208c0162002133565b87519083019062002376818360208c0162002133565b0195865250506bffffffffffffffffffffffff19606093841b81166020860152603485019290925290911b16605482015260680192915050565b634e487b7160e01b600052602160045260246000fd5b828152604060208201526000620022a2604083018462002159565b60008251620023f581846020870162002133565b919091019291505056fe60806040526011805460ff60a81b1916600160a81b1790553480156200002457600080fd5b50604051620023603803806200236083398101604081905262000047916200068e565b8051602082015160036200005c838262000855565b5060046200006b828262000855565b5050600160055550604081015162000085903090620003fa565b6040808201516006556080820151600855606082015160075560a0820151600955610140820151600f80546001600160a01b039283166001600160a01b0319918216179091556101808401516010805491841691831691909117905560e0840151600d5560c0840151600a55610100840151600b55610120840151600c5561016084015160128054919093169082168117909255601180549091163317905581516315ab88c960e31b8152915160009283929163ad5c4648916004818101926020929091908290030181865afa15801562000164573d6000803e3d6000fd5b505050506040513d601f19601f820116820180604052508101906200018a919062000921565b6001600160a01b031630106200021b57601260009054906101000a90046001600160a01b03166001600160a01b031663ad5c46486040518163ffffffff1660e01b8152600401602060405180830381865afa158015620001ee573d6000803e3d6000fd5b505050506040513d601f19601f8201168201806040525081019062000214919062000921565b306200028b565b601254604080516315ab88c960e31b8152905130926001600160a01b03169163ad5c46489160048083019260209291908290030181865afa15801562000265573d6000803e3d6000fd5b505050506040513d601f19601f820116820180604052508101906200028b919062000921565b91509150601260009054906101000a90046001600160a01b03166001600160a01b031663c45a01556040518163ffffffff1660e01b8152600401602060405180830381865afa158015620002e3573d6000803e3d6000fd5b505050506040513d601f19601f8201168201806040525081019062000309919062000921565b6040516001600160601b0319606085811b8216602084015284901b16603482015260480160405160208183030381529060405280519060200120604051602001620003b99291907fff00000000000000000000000000000000000000000000000000000000000000815260609290921b6001600160601b031916600183015260158201527f96e8ac4277198ff8b6f785478aa9a39f403cb768dd02cbee326c3e7da348845f603582015260550190565b60408051808303601f190181529190528051602090910120600e80546001600160a01b0319166001600160a01b03909216919091179055506200096e915050565b6001600160a01b0382166200042a5760405163ec442f0560e01b8152600060048201526024015b60405180910390fd5b62000438600083836200043c565b5050565b6001600160a01b0383166200046b5780600260008282546200045f919062000946565b90915550620004df9050565b6001600160a01b03831660009081526020819052604090205481811015620004c05760405163391434e360e21b81526001600160a01b0385166004820152602481018290526044810183905260640162000421565b6001600160a01b03841660009081526020819052604090209082900390555b6001600160a01b038216620004fd576002805482900390556200051c565b6001600160a01b03821660009081526020819052604090208054820190555b816001600160a01b0316836001600160a01b03167fddf252ad1be2c89b69c2b068fc378daa952ba7f163c4a11628f55a4df523b3ef836040516200056291815260200190565b60405180910390a3505050565b634e487b7160e01b600052604160045260246000fd5b6040516101a081016001600160401b0381118282101715620005ab57620005ab6200056f565b60405290565b604051601f8201601f191681016001600160401b0381118282101715620005dc57620005dc6200056f565b604052919050565b600082601f830112620005f657600080fd5b81516001600160401b038111156200061257620006126200056f565b602062000628601f8301601f19168201620005b1565b82815285828487010111156200063d57600080fd5b60005b838110156200065d57858101830151828201840152820162000640565b506000928101909101919091529392505050565b80516001600160a01b03811681146200068957600080fd5b919050565b600060208284031215620006a157600080fd5b81516001600160401b0380821115620006b957600080fd5b908301906101a08286031215620006cf57600080fd5b620006d962000585565b825182811115620006e957600080fd5b620006f787828601620005e4565b8252506020830151828111156200070d57600080fd5b6200071b87828601620005e4565b60208301525060408301516040820152606083015160608201526080830151608082015260a083015160a082015260c083015160c082015260e083015160e0820152610100915081830151828201526101209150818301518282015261014091506200078982840162000671565b8282015261016091506200079f82840162000671565b828201526101809150620007b582840162000671565b91810191909152949350505050565b600181811c90821680620007d957607f821691505b602082108103620007fa57634e487b7160e01b600052602260045260246000fd5b50919050565b601f82111562000850576000816000526020600020601f850160051c810160208610156200082b5750805b601f850160051c820191505b818110156200084c5782815560010162000837565b5050505b505050565b81516001600160401b038111156200087157620008716200056f565b6200088981620008828454620007c4565b8462000800565b602080601f831160018114620008c15760008415620008a85750858301515b600019600386901b1c1916600185901b1785556200084c565b600085815260208120601f198616915b82811015620008f257888601518255948401946001909101908401620008d1565b5085821015620009115787850151600019600388901b60f8161c191681555b5050505050600190811b01905550565b6000602082840312156200093457600080fd5b6200093f8262000671565b9392505050565b808201808211156200096857634e487b7160e01b600052601160045260246000fd5b92915050565b6119e2806200097e6000396000f3fe6080604052600436106101ee5760003560e01c806370a082311161010d578063a9059cbb116100a0578063c78d0b0e1161006f578063c78d0b0e14610595578063dd62ed3e146105ab578063e8e70c4c146105f1578063e98d5cd514610607578063fd62bcd71461061a57600080fd5b8063a9059cbb1461051e578063c45a01551461053e578063c48afe161461055e578063c6d8b7781461057457600080fd5b806385f377ca116100dc57806385f377ca146104b45780638fd3ab80146104d457806395d89b41146104e9578063a8aa1b31146104fe57600080fd5b806370a0823114610415578063718763181461044b57806371ea0d8e1461047e57806379cc67901461049457600080fd5b806325e17b57116101855780634c7766b5116101545780634c7766b5146103b65780634fb3fbe7146103cc57806361d027b3146103df5780636d04eb9f146103ff57600080fd5b806325e17b571461032a578063313ce5671461035857806342966c681461037457806349a302461461039657600080fd5b80631694505e116101c15780631694505e146102a757806318160ddd146102df5780631a1c6e53146102f457806323b872dd1461030a57600080fd5b806306fdde03146101f3578063095ea7b31461021e578063152044811461024e5780631655bc6214610283575b600080fd5b3480156101ff57600080fd5b5061020861063b565b60405161021591906116e4565b60405180910390f35b34801561022a57600080fd5b5061023e610239366004611748565b6106cd565b6040519015158152602001610215565b34801561025a57600080fd5b5061026e610269366004611782565b6106e7565b60408051928352602083019190915201610215565b34801561028f57600080fd5b5061029960075481565b604051908152602001610215565b3480156102b357600080fd5b506012546102c7906001600160a01b031681565b6040516001600160a01b039091168152602001610215565b3480156102eb57600080fd5b50600254610299565b34801561030057600080fd5b5061029960095481565b34801561031657600080fd5b5061023e6103253660046117c3565b61077d565b61033d610338366004611804565b6107a1565b60408051938452602084019290925290820152606001610215565b34801561036457600080fd5b5060405160128152602001610215565b34801561038057600080fd5b5061039461038f366004611826565b610964565b005b3480156103a257600080fd5b5061026e6103b1366004611782565b610971565b3480156103c257600080fd5b50610299600c5481565b61033d6103da366004611826565b6109bf565b3480156103eb57600080fd5b50600f546102c7906001600160a01b031681565b34801561040b57600080fd5b50610299600b5481565b34801561042157600080fd5b5061029961043036600461183f565b6001600160a01b031660009081526020819052604090205490565b61045e610459366004611804565b610b41565b604080519485526020850193909352918301526060820152608001610215565b34801561048a57600080fd5b50610299600a5481565b3480156104a057600080fd5b506103946104af366004611748565b610c89565b3480156104c057600080fd5b506010546102c7906001600160a01b031681565b3480156104e057600080fd5b5061033d610ca2565b3480156104f557600080fd5b50610208611040565b34801561050a57600080fd5b50600e546102c7906001600160a01b031681565b34801561052a57600080fd5b5061023e610539366004611748565b61104f565b34801561054a57600080fd5b506011546102c7906001600160a01b031681565b34801561056a57600080fd5b50610299600d5481565b34801561058057600080fd5b5060115461023e90600160a81b900460ff1681565b3480156105a157600080fd5b5061029960065481565b3480156105b757600080fd5b506102996105c636600461185c565b6001600160a01b03918216600090815260016020908152604080832093909416825291909152205490565b3480156105fd57600080fd5b5061029960085481565b61033d610615366004611804565b6110a7565b34801561062657600080fd5b5060115461023e90600160a01b900460ff1681565b60606003805461064a90611895565b80601f016020809104026020016040519081016040528092919081815260200182805461067690611895565b80156106c35780601f10610698576101008083540402835291602001916106c3565b820191906000526020600020905b8154815290600101906020018083116106a657829003601f168201915b5050505050905090565b6000336106db8185856111ee565b60019150505b92915050565b6000808215610734576000806106fc88611200565b909250905061070b81836118e5565b925061071788886118e5565b610721878a6118f8565b61072b919061190f565b93505050610774565b61073e86866118e5565b61074885886118f8565b610752919061190f565b915060008061076084611200565b909250905061076f81836118e5565b925050505b94509492505050565b60003361078b85828561124e565b6107968585856112d1565b506001949350505050565b601154600090819081906001600160a01b031633146107d357604051630636a15760e11b815260040160405180910390fd5b601154600160a01b900460ff16156107fe5760405163058aab2d60e21b815260040160405180910390fd5b30600090815260208190526040902054851061082d5760405163904db1ff60e01b815260040160405180910390fd5b60008560075461083d9190611931565b60085461084a90886118f8565b610854919061190f565b905061085f81611200565b90935091508161086f84836118e5565b61087991906118e5565b93508484111561089c57604051630a1c173f60e41b815260040160405180910390fd5b600f546108b2906001600160a01b031684611330565b6010546108c8906001600160a01b031683611330565b85600760008282546108da9190611931565b9250508190555080600860008282546108f391906118e5565b9250508190555060008434111561091f5761090e8534611931565b905061091a3382611330565b610940565b84341015610940576040516367c45b4f60e11b815260040160405180910390fd5b61094b3033896112d1565b50506109556113a4565b61095d6113d0565b9250925092565b61096e33826113ff565b50565b60008082156109ab5760008061098688611200565b909250905061099581836118e5565b92506109a18887611931565b610721888a6118f8565b6109b58685611931565b61074886886118f8565b601154600090819081906001600160a01b031633146109f157604051630636a15760e11b815260040160405180910390fd5b601154600160a01b900460ff1615610a1c5760405163058aab2d60e21b815260040160405180910390fd5b306000908152602081905260409020548410610a4b5760405163904db1ff60e01b815260040160405180910390fd5b349250610a5783611200565b9092509050600081610a698486611931565b610a739190611931565b600f54909150610a8c906001600160a01b031684611330565b601054610aa2906001600160a01b031683611330565b600081600854610ab291906118e5565b600754610abf90846118f8565b610ac9919061190f565b905085811015610aec57604051630a1c173f60e41b815260040160405180910390fd5b8060076000828254610afe9190611931565b925050819055508160086000828254610b1791906118e5565b90915550610b2890503033836112d1565b5050610b326113a4565b610b3a6113d0565b9193909250565b6011546000908190819081906001600160a01b03163314610b7557604051630636a15760e11b815260040160405180910390fd5b601154600160a01b900460ff1615610ba05760405163058aab2d60e21b815260040160405180910390fd5b610ba985611200565b909250905080610bb98387611931565b610bc39190611931565b600f54909450610bdc906001600160a01b031683611330565b601054610bf2906001600160a01b031682611330565b84600854610c009190611931565b600754610c0d90876118f8565b610c17919061190f565b925085831115610c3a57604051630a1c173f60e41b815260040160405180910390fd5b610c453330856112d1565b8260076000828254610c5791906118e5565b925050819055508460086000828254610c709190611931565b90915550610c8090503385611330565b92959194509250565b610c9482338361124e565b610c9e82826113ff565b5050565b601154600090819081906001600160a01b03163314610cd457604051630636a15760e11b815260040160405180910390fd5b6011805460ff60a81b19169055306000908152602081815260409182902054601254835163c45a015560e01b8152935191936001600160a01b039091169263c45a0155926004808401938290030181865afa158015610d37573d6000803e3d6000fd5b505050506040513d601f19601f82011682018060405250810190610d5b9190611944565b6001600160a01b031663c9c6539630601260009054906101000a90046001600160a01b03166001600160a01b031663ad5c46486040518163ffffffff1660e01b8152600401602060405180830381865afa158015610dbd573d6000803e3d6000fd5b505050506040513d601f19601f82011682018060405250810190610de19190611944565b6040516001600160e01b031960e085901b1681526001600160a01b039283166004820152911660248201526044016020604051808303816000875af1158015610e2e573d6000803e3d6000fd5b505050506040513d601f19601f82011682018060405250810190610e529190611944565b5060125460405163095ea7b360e01b81526001600160a01b03909116600482015260248101829052309063095ea7b3906044016020604051808303816000875af1158015610ea4573d6000803e3d6000fd5b505050506040513d601f19601f82011682018060405250810190610ec89190611961565b50610ed1611435565b9350610edd8482611931565b600f54600d54919450479350610efe916001600160a01b0390911690611330565b610f0830846113ff565b6012546000906001600160a01b031663f305d719473088804783610f2d42600a6118e5565b60405160e089901b6001600160e01b03191681526001600160a01b039687166004820152602481019590955260448501939093526064840191909152909216608482015260a481019190915260c40160606040518083038185885af1158015610f9a573d6000803e3d6000fd5b50505050506040513d601f19601f82011682018060405250810190610fbf919061197e565b600e5460405163a9059cbb60e01b815260006004820152602481018390529194506001600160a01b0316925063a9059cbb91506044016020604051808303816000875af1158015611014573d6000803e3d6000fd5b505050506040513d601f19601f820116820180604052508101906110389190611961565b505050909192565b60606004805461064a90611895565b600e546000906001600160a01b0384811691161480156110785750601154600160a81b900460ff165b1561109657604051633b95747f60e21b815260040160405180910390fd5b6110a0838361146d565b9392505050565b601154600090819081906001600160a01b031633146110d957604051630636a15760e11b815260040160405180910390fd5b601154600160a01b900460ff16156111045760405163058aab2d60e21b815260040160405180910390fd5b60008560075461111491906118e5565b60085461112190886118f8565b61112b919061190f565b905061113681611200565b9093509150816111468483611931565b6111509190611931565b600f54909450611169906001600160a01b031684611330565b60105461117f906001600160a01b031683611330565b848410156111a057604051630a1c173f60e41b815260040160405180910390fd5b85600760008282546111b291906118e5565b9250508190555080600860008282546111cb9190611931565b909155506111db90503385611330565b6111e63330886112d1565b509250925092565b6111fb838383600161147b565b505050565b6000806127106009548461121491906118f8565b61121e919061190f565b9150612710600a548361123191906118f8565b61123b919061190f565b90506112478183611931565b9150915091565b6001600160a01b0383811660009081526001602090815260408083209386168352929052205460001981146112cb57818110156112bc57604051637dc7a0d960e11b81526001600160a01b038416600482015260248101829052604481018390526064015b60405180910390fd5b6112cb8484848403600061147b565b50505050565b6001600160a01b0383166112fb57604051634b637e8f60e11b8152600060048201526024016112b3565b6001600160a01b0382166113255760405163ec442f0560e01b8152600060048201526024016112b3565b6111fb838383611550565b6000826001600160a01b03168260405160006040518083038185875af1925050503d806000811461137d576040519150601f19603f3d011682016040523d82523d6000602084013e611382565b606091505b50509050806111fb576040516338822c1360e11b815260040160405180910390fd5b60006113ae61167a565b9050600b5481111561096e576011805460ff60a01b1916600160a01b17905550565b60006113da61167a565b9050600c5481111561096e576040516353dfa97560e01b815260040160405180910390fd5b6001600160a01b03821661142957604051634b637e8f60e11b8152600060048201526024016112b3565b610c9e82600083611550565b600080600d54476114469190611931565b9050600060085460075461145a919061190f565b905061146681836118f8565b9250505090565b6000336106db8185856112d1565b6001600160a01b0384166114a55760405163e602df0560e01b8152600060048201526024016112b3565b6001600160a01b0383166114cf57604051634a1406b160e11b8152600060048201526024016112b3565b6001600160a01b03808516600090815260016020908152604080832093871683529290522082905580156112cb57826001600160a01b0316846001600160a01b03167f8c5be1e5ebec7d5bd14f71427d1e84f3dd0314c0f7b2291e5b200ac8c7c3b9258460405161154291815260200190565b60405180910390a350505050565b6001600160a01b03831661157b57806002600082825461157091906118e5565b909155506115ed9050565b6001600160a01b038316600090815260208190526040902054818110156115ce5760405163391434e360e21b81526001600160a01b038516600482015260248101829052604481018390526064016112b3565b6001600160a01b03841660009081526020819052604090209082900390555b6001600160a01b03821661160957600280548290039055611628565b6001600160a01b03821660009081526020819052604090208054820190555b816001600160a01b0316836001600160a01b03167fddf252ad1be2c89b69c2b068fc378daa952ba7f163c4a11628f55a4df523b3ef8360405161166d91815260200190565b60405180910390a3505050565b600080600754600854670de0b6b3a764000061169691906118f8565b6116a0919061190f565b30600090815260208190526040902054909150670de0b6b3a7640000906002546116ca9190611931565b6116d490836118f8565b6116de919061190f565b91505090565b60006020808352835180602085015260005b81811015611712578581018301518582016040015282016116f6565b506000604082860101526040601f19601f8301168501019250505092915050565b6001600160a01b038116811461096e57600080fd5b6000806040838503121561175b57600080fd5b823561176681611733565b946020939093013593505050565b801515811461096e57600080fd5b6000806000806080858703121561179857600080fd5b84359350602085013592506040850135915060608501356117b881611774565b939692955090935050565b6000806000606084860312156117d857600080fd5b83356117e381611733565b925060208401356117f381611733565b929592945050506040919091013590565b6000806040838503121561181757600080fd5b50508035926020909101359150565b60006020828403121561183857600080fd5b5035919050565b60006020828403121561185157600080fd5b81356110a081611733565b6000806040838503121561186f57600080fd5b823561187a81611733565b9150602083013561188a81611733565b809150509250929050565b600181811c908216806118a957607f821691505b6020821081036118c957634e487b7160e01b600052602260045260246000fd5b50919050565b634e487b7160e01b600052601160045260246000fd5b808201808211156106e1576106e16118cf565b80820281158282048414176106e1576106e16118cf565b60008261192c57634e487b7160e01b600052601260045260246000fd5b500490565b818103818111156106e1576106e16118cf565b60006020828403121561195657600080fd5b81516110a081611733565b60006020828403121561197357600080fd5b81516110a081611774565b60008060006060848603121561199357600080fd5b835192506020840151915060408401519050925092509256fea26469706673582212208162a8d521efc3f64bafc1544c4561aedff63e8738c668986242b3a07e8c771264736f6c63430008170033a26469706673582212200cbde5cdaa6b178e8b1a62a84f5845c08103b82073fa20a0dd52a77d8ff341b264736f6c63430008170033",
	"linkReferences": {},
	"deployedLinkReferences": {}
}